{
  "contractName": "ProductStorage",
  "abi": [
    {
      "inputs": [],
      "payable": false,
      "stateMutability": "nonpayable",
      "type": "constructor"
    },
    {
      "anonymous": false,
      "inputs": [
        {
          "indexed": false,
          "internalType": "uint256",
          "name": "product_id",
          "type": "uint256"
        },
        {
          "indexed": false,
          "internalType": "string",
          "name": "product_name",
          "type": "string"
        },
        {
          "indexed": false,
          "internalType": "string",
          "name": "product_brand",
          "type": "string"
        },
        {
          "indexed": false,
          "internalType": "uint256",
          "name": "product_price",
          "type": "uint256"
        },
        {
          "indexed": false,
          "internalType": "uint256",
          "name": "product_manufacturing_date",
          "type": "uint256"
        }
      ],
      "name": "ProductCreated",
      "type": "event"
    },
    {
      "constant": false,
      "inputs": [
        {
          "internalType": "string",
          "name": "product_name",
          "type": "string"
        },
        {
          "internalType": "string",
          "name": "product_brand",
          "type": "string"
        },
        {
          "internalType": "uint256",
          "name": "product_price",
          "type": "uint256"
        }
      ],
      "name": "createProduct",
      "outputs": [],
      "payable": false,
      "stateMutability": "nonpayable",
      "type": "function"
    },
    {
      "constant": true,
      "inputs": [],
      "name": "getProductIds",
      "outputs": [
        {
          "internalType": "uint256[]",
          "name": "",
          "type": "uint256[]"
        }
      ],
      "payable": false,
      "stateMutability": "view",
      "type": "function"
    },
    {
      "constant": true,
      "inputs": [
        {
          "internalType": "uint256",
          "name": "product_id",
          "type": "uint256"
        }
      ],
      "name": "getProduct",
      "outputs": [
        {
          "internalType": "uint256",
          "name": "",
          "type": "uint256"
        },
        {
          "internalType": "string",
          "name": "",
          "type": "string"
        },
        {
          "internalType": "string",
          "name": "",
          "type": "string"
        },
        {
          "internalType": "uint256",
          "name": "",
          "type": "uint256"
        },
        {
          "internalType": "uint256",
          "name": "",
          "type": "uint256"
        }
      ],
      "payable": false,
      "stateMutability": "view",
      "type": "function"
    },
    {
      "constant": true,
      "inputs": [],
      "name": "getNewlyAddedProduct",
      "outputs": [
        {
          "internalType": "uint256",
          "name": "",
          "type": "uint256"
        },
        {
          "internalType": "string",
          "name": "",
          "type": "string"
        },
        {
          "internalType": "string",
          "name": "",
          "type": "string"
        },
        {
          "internalType": "uint256",
          "name": "",
          "type": "uint256"
        },
        {
          "internalType": "uint256",
          "name": "",
          "type": "uint256"
        }
      ],
      "payable": false,
      "stateMutability": "view",
      "type": "function"
    }
  ],
  "bytecode": "0x608060405234801561001057600080fd5b506000600281905550610a56806100286000396000f3fe608060405234801561001057600080fd5b506004361061004c5760003560e01c806347428e7b146100515780637de98f3f146100b0578063a1422209146101b4578063b9db15b414610310575b600080fd5b610059610438565b6040518080602001828103825283818151815260200191508051906020019060200280838360005b8381101561009c578082015181840152602081019050610081565b505050509050019250505060405180910390f35b6100b8610490565b604051808681526020018060200180602001858152602001848152602001838103835287818151815260200191508051906020019080838360005b8381101561010e5780820151818401526020810190506100f3565b50505050905090810190601f16801561013b5780820380516001836020036101000a031916815260200191505b50838103825286818151815260200191508051906020019080838360005b83811015610174578082015181840152602081019050610159565b50505050905090810190601f1680156101a15780820380516001836020036101000a031916815260200191505b5097505050505050505060405180910390f35b61030e600480360360608110156101ca57600080fd5b81019080803590602001906401000000008111156101e757600080fd5b8201836020820111156101f957600080fd5b8035906020019184600183028401116401000000008311171561021b57600080fd5b91908080601f016020809104026020016040519081016040528093929190818152602001838380828437600081840152601f19601f8201169050808301925050505050505091929192908035906020019064010000000081111561027e57600080fd5b82018360208201111561029057600080fd5b803590602001918460018302840111640100000000831117156102b257600080fd5b91908080601f016020809104026020016040519081016040528093929190818152602001838380828437600081840152601f19601f82011690508083019250505050505050919291929080359060200190929190505050610544565b005b61033c6004803603602081101561032657600080fd5b8101908080359060200190929190505050610744565b604051808681526020018060200180602001858152602001848152602001838103835287818151815260200191508051906020019080838360005b83811015610392578082015181840152602081019050610377565b50505050905090810190601f1680156103bf5780820380516001836020036101000a031916815260200191505b50838103825286818151815260200191508051906020019080838360005b838110156103f85780820151818401526020810190506103dd565b50505050905090810190601f1680156104255780820380516001836020036101000a031916815260200191505b5097505050505050505060405180910390f35b6060600180548060200260200160405190810160405280929190818152602001828054801561048657602002820191906000526020600020905b815481526020019060010190808311610472575b5050505050905090565b60006060806000806002546000806000838152602001908152602001600020600001541415610527576040517f08c379a00000000000000000000000000000000000000000000000000000000081526004018080602001828103825260148152602001807f50726f64756374204964204e6f7420466f756e6400000000000000000000000081525060200191505060405180910390fd5b610532600254610744565b95509550955095509550509091929394565b6002600081548092919060010191905055506040518060a0016040528060025481526020018481526020018381526020018281526020014281525060008060025481526020019081526020016000206000820151816000015560208201518160010190805190602001906105b992919061097c565b5060408201518160020190805190602001906105d692919061097c565b506060820151816003015560808201518160040155905050600160025490806001815401808255809150509060018203906000526020600020016000909192909190915055507f925d44cac5c3c8d7cc237ff3294f4ea7d55bb90b068848814cbbe534bb7ea6a560025484848442604051808681526020018060200180602001858152602001848152602001838103835287818151815260200191508051906020019080838360005b8381101561069a57808201518184015260208101905061067f565b50505050905090810190601f1680156106c75780820380516001836020036101000a031916815260200191505b50838103825286818151815260200191508051906020019080838360005b838110156107005780820151818401526020810190506106e5565b50505050905090810190601f16801561072d5780820380516001836020036101000a031916815260200191505b5097505050505050505060405180910390a1505050565b60006060806000808560008060008381526020019081526020016000206000015414156107d9576040517f08c379a00000000000000000000000000000000000000000000000000000000081526004018080602001828103825260148152602001807f50726f64756374204964204e6f7420466f756e6400000000000000000000000081525060200191505060405180910390fd5b866000808981526020019081526020016000206001016000808a81526020019081526020016000206002016000808b8152602001908152602001600020600301546000808c815260200190815260200160002060040154838054600181600116156101000203166002900480601f0160208091040260200160405190810160405280929190818152602001828054600181600116156101000203166002900480156108c55780601f1061089a576101008083540402835291602001916108c5565b820191906000526020600020905b8154815290600101906020018083116108a857829003601f168201915b50505050509350828054600181600116156101000203166002900480601f0160208091040260200160405190810160405280929190818152602001828054600181600116156101000203166002900480156109615780601f1061093657610100808354040283529160200191610961565b820191906000526020600020905b81548152906001019060200180831161094457829003601f168201915b50505050509250955095509550955095505091939590929450565b828054600181600116156101000203166002900490600052602060002090601f016020900481019282601f106109bd57805160ff19168380011785556109eb565b828001600101855582156109eb579182015b828111156109ea5782518255916020019190600101906109cf565b5b5090506109f891906109fc565b5090565b610a1e91905b80821115610a1a576000816000905550600101610a02565b5090565b9056fea265627a7a723158204c4948a98cfe0706a109735f8f85cf87778ba0fa86826909fc400d7525b00c4e64736f6c63430005100032",
  "source": "// SPDX-License-Identifier: MIT\npragma solidity >=0.4.21;\n\ncontract ProductStorage {\n  struct Product {\n    uint product_id;\n    string product_name;\n    string product_brand;\n    uint product_price;\n    uint product_manufacturing_date;\n  }\n\n    event ProductCreated(\n        uint product_id, \n        string product_name, \n        string product_brand,\n        uint product_price,\n        uint product_manufacturing_date\n    );\n\n  \n  mapping (uint=>Product) Products;\n  uint[] productIds;\n\n    uint nextId;\n    \n    constructor() public{\n      nextId = 0;\n    }\n\n  function createProduct(\n    string memory product_name, \n    string memory product_brand,\n    uint product_price\n    ) public {\n        nextId++;\n    Products[nextId] = Product(nextId, product_name, product_brand, product_price, block.timestamp);\n    productIds.push(nextId);\n    emit ProductCreated(nextId, product_name, product_brand, product_price, block.timestamp);\n  } \n  \n  function getProductIds() public view returns (uint[] memory) {\n        return (productIds);\n    }\n\n    function getProduct(uint product_id) \n        public \n        view \n        productExits(product_id)\n        returns (\n        uint,\n        string memory,\n        string memory,\n        uint,\n        uint\n    ) \n    {\n        return (\n            product_id, \n            Products[product_id].product_name,\n            Products[product_id].product_brand,\n            Products[product_id].product_price,\n            Products[product_id].product_manufacturing_date\n        );\n    }\n\n    function getNewlyAddedProduct() \n        public \n        view \n        productExits(nextId)\n        returns (\n        uint,\n        string memory,\n        string memory,\n        uint,\n        uint\n    ) {\n      return (\n        getProduct(nextId)\n      );\n    }\n\n    modifier productExits(uint id) {\n        if (Products[id].product_id == 0 ) {\n            revert(\"Product Id Not Found\");\n        }\n        _;\n    }\n}\n",
  "sourcePath": "C:\\Users\\abhij\\Documents\\React JS tutorial\\BE-Project\\contracts\\ProductStorage.sol",
  "compiler": {
    "name": "solc",
    "version": "0.5.16+commit.9c3226ce.Emscripten.clang"
  },
  "schemaVersion": "3.4.3",
  "updatedAt": "2021-11-09T05:55:03.407Z",
  "networkType": "ethereum",
  "devdoc": {
    "methods": {}
  },
  "userdoc": {
    "methods": {}
  }
}